:100000000C9463000C948B000C948B000C948B006C
:100010000C948B000C948B000C948B000C948B0034
:100020000C948B000C948B000C948B000C948B0024
:100030000C948B000C948B000C948B000C948B0014
:100040000C94EA050C948B000C94B8050C94920562
:100050000C948B000C948B000C948B000C948B00F4
:100060000C9434060C948B00000000002400270040
:100070002A0000000000250028002B0000000000DE
:1000800023002600290004040404040404040202DA
:100090000202020203030303030301020408102007
:1000A0004080010204081020010204081020000012
:1000B0000008000201000003040700000000000027
:1000C00000004F07240A11241FBECFEFD8E0DEBF87
:1000D000CDBF11E0A0E0B1E0E0EEFAE102C0059092
:1000E0000D92A234B107D9F722E0A2E4B1E001C039
:1000F0001D92A338B207E1F710E0C2E6D0E004C0D9
:100100002197FE010E946B0BC136D107C9F70E94EF
:10011000EF070C94630D0C940000AF92BF92CF9246
:10012000DF92EF92FF920F931F93CF93DF936C01B7
:100130007B018B01040F151FEB015E01AE18BF0898
:10014000C017D10759F06991D601ED91FC9101904A
:10015000F081E02DC6010995892B79F7C501DF9162
:10016000CF911F910F91FF90EF90DF90CF90BF90B4
:10017000AF900895FC01538D448D252F30E0842FDE
:1001800090E0821B930B541710F0CF9608950197BF
:100190000895FC01918D828D981761F0A28DAE0FAC
:1001A000BF2FB11D5D968C91928D9F5F9F73928F33
:1001B00090E008958FEF9FEF0895FC01918D828D5F
:1001C000981731F0828DE80FF11D858D90E008952C
:1001D0008FEF9FEF0895FC01918D228D892F90E084
:1001E000805C9F4F821B91098F739927089584EC3F
:1001F00091E00E94EB0021E0892B09F420E0822F9E
:10020000089580E090E0892B29F00E94F700811189
:100210000C9400000895FC01A48DA80FB92FB11D06
:10022000A35ABF4F2C91848D90E001968F7399272C
:10023000848FA689B7892C93A089B1898C9183700A
:1002400080648C93938D848D981306C00288F38903
:10025000E02D80818F7D80830895EF92FF920F9330
:100260001F93CF93DF93EC0181E0888F9B8D8C8D62
:1002700098131AC0E889F989808185FF15C09FB756
:10028000F894EE89FF896083E889F9898081837019
:10029000806480839FBF81E090E0DF91CF911F91C8
:1002A0000F91FF90EF900895F62E0B8D10E00F5FE9
:1002B0001F4F0F731127E02E8C8D8E110CC00FB6BF
:1002C00007FCFACFE889F989808185FFF5CFCE0157
:1002D0000E940B01F1CFEB8DEC0FFD2FF11DE35AC6
:1002E000FF4FF0829FB7F8940B8FEA89FB898081DA
:1002F0008062CFCFCF93DF93EC01888D8823B9F054
:10030000AA89BB89E889F9898C9185FD03C0808120
:1003100086FD0DC00FB607FCF7CF8C9185FFF2CF9D
:10032000808185FFEDCFCE010E940B01E9CFDF91E7
:10033000CF910895833081F028F4813099F0823094
:10034000A9F008958730A9F08830C9F08430B1F45D
:10035000809180008F7D03C0809180008F77809393
:100360008000089584B58F7784BD089584B58F7D0E
:10037000FBCF8091B0008F778093B000089580917B
:10038000B0008F7DF9CFCF93DF93282F30E0F901B4
:10039000E255FF4F8491F901E656FF4FD491F901E0
:1003A000EA57FF4FC491CC23A1F081110E949A011A
:1003B000EC2FF0E0EE0FFF1FE458FF4FA591B49132
:1003C000EC91ED2381E090E009F480E0DF91CF91A2
:1003D000089580E090E0FACF1F93CF93DF93282F0A
:1003E00030E0F901E255FF4F8491F901E656FF4FE5
:1003F000D491F901EA57FF4FC491CC23A9F0162FED
:1004000081110E949A01EC2FF0E0EE0FFF1FEE58D1
:10041000FF4FA591B4918FB7F894EC91111108C0DA
:10042000D095DE23DC938FBFDF91CF911F9108958C
:10043000DE2BF8CFCF93DF9390E0FC01E656FF4F21
:1004400024918A579F4FFC0184918823D1F090E03A
:10045000880F991FFC01E859FF4FA591B491FC0149
:10046000EE58FF4FC591D49161110EC09FB7F8941B
:100470008C91E22FE0958E238C932881E223E883F0
:100480009FBFDF91CF9108958FB7F894EC91E22B45
:10049000EC938FBFF6CF3FB7F8948091B80190915D
:1004A000B901A091BA01B091BB0126B5A89B05C0C6
:1004B0002F3F19F00196A11DB11D3FBFBA2FA92FE3
:1004C000982F8827BC01CD01620F711D811D911DE0
:1004D00042E0660F771F881F991F4A95D1F708954C
:1004E0008F929F92AF92BF92CF92DF92EF92FF9244
:1004F0004B015C010E944B026B017C010E944B028C
:100500006C197D098E099F09683E7340810591052C
:10051000A8F321E0821A9108A108B10888EEC80E5C
:1005200083E0D81EE11CF11C81149104A104B104E4
:1005300029F7FF90EF90DF90CF90BF90AF909F9002
:100540008F900895089520916901260F3327331F56
:1005500021323105ECF420918D01FC0190E080E026
:10056000243069F082E00895A09169012191AC01E5
:10057000475B5E4FA40FB52FB11D2C9301968617D4
:1005800098F380916901680F6093690180E0089594
:1005900081E0089508958FEF9FEF08958FEF9FEF0B
:1005A00008958091420190E0919581959109089577
:1005B000CF93DF93CB01EA01642F0E94A302CE0107
:1005C000DF91CF910895CF93DF931F92CDB7DEB720
:1005D000698361E0CE0101960E94A30281E090E070
:1005E0000F90DF91CF91089590E080E00895CF9330
:1005F000DF93EC0160E08E810E94EC0161E08E816E
:100600000E94EC0160E08E810E94EC018BE891E099
:100610000197F1F7DF91CF910895CF92DF92EF929A
:10062000FF920F931F93CF93DF936C017C0187E0C0
:10063000E80EF11CD0E0C0E0062F10E0B8010C2E4F
:1006400002C0759567950A94E2F76170F701819190
:100650007F010E94EC012196C430D10579F7C601D3
:10066000DF91CF911F910F91FF90EF90DF90CF908E
:100670000C94F702CF92DF92EF92FF920F931F93A9
:10068000CF93DF93EC01F62E642F8C810E94EC0156
:100690008D818F3F19F060E00E94EC010F2D10E07A
:1006A0008F8584FF25C06E0187E0C80ED11CF12C18
:1006B000E12CB8010E2C02C0759567950A94E2F7FB
:1006C0006170F60181916F010E94EC01FFEFEF1A5A
:1006D000FF0A88E0E816F10461F7CE01DF91CF91BF
:1006E0001F910F91FF90EF90DF90CF900C94F70245
:1006F000B80184E0759567958A95E1F7CE010E946F
:100700000D036F2DCE01DF91CF911F910F91FF90BF
:10071000EF90DF90CF900C940D0340E0682F87E6B8
:1007200092E00C943A03CF93DF93823029F49091B6
:10073000760298609093760280937A0210927B0200
:1007400080E480937C0280E180937D0280E5809349
:100750007E0261E080916B020E941A0280916C021D
:100760008F3F19F061E00E941A0261E080916D02F2
:100770000E941A02C7E6D2E09E01275632408091BD
:10078000760284FD0BC084E090E02196281739079B
:1007900044F461E08E810E941A02EECF88E090E07E
:1007A000F4CF8BE39DE00197F1F760E080916B025D
:1007B0000E94EC0160E080916D020E94EC0180914A
:1007C0006C028F3F19F060E00E94EC01809176028C
:1007D00084FD39C063E087E692E00E940D03CBE41C
:1007E000D6E4CE010197F1F763E087E692E00E943C
:1007F0000D032197F1F763E087E692E00E940D0375
:1008000083E592E00197F1F762E087E692E00E94CB
:100810000D038091760280620E948D0384E08093B4
:1008200077028CE00E948D0381E00E948D038BE3B0
:100830009FE10197F1F782E08093780286E0DF91F3
:10084000CF910C948D0380620E948D038BE496E41B
:100850000197F1F78091760280620E948D0383E513
:1008600092E00197F1F78091760280620E948D03F9
:10087000D0CF41E00E943A0381E090E00895FB016F
:1008800001900020E9F73197AF01461B570BDC01BF
:10089000ED91FC910280F381E02D09940F931F9359
:1008A000CF93DF93EC0168E271E00E943F048C017A
:1008B0006AE271E0CE010E943F04800F911FDF9138
:1008C000CF911F910F9108954F925F926F927F92F7
:1008D0008F929F92AF92BF92CF92DF92EF92FF9250
:1008E0000F931F93CF93DF93CDB7DEB7A1970FB6CA
:1008F000F894DEBF0FBECDBF8C016B01770FEE0801
:10090000FF08F7FE49C0DC01ED91FC910190F081F8
:10091000E02D6DE209955C0122273327A9012C19EE
:100920003D094E095F0919A2FE01B1967F019AE0C7
:10093000492E512C612C712CCA01B901A3019201DD
:100940000E943A0B605DD7016E937D012115310540
:100950004105510589F790E080E0109721F0BD0135
:10096000C8010E943F048A0D9B1DA1960FB6F89402
:10097000DEBF0FBECDBFDF91CF911F910F91FF90D2
:10098000EF90DF90CF90BF90AF909F908F907F902F
:100990006F905F904F900895A701960119A2FE01F4
:1009A000B1967F018AE0882E912CA12CB12CCA012E
:1009B000B901A50194010E943A0B605DD7016E93C5
:1009C0007D01211531054105510589F790E080E051
:1009D000109759F2BD01C8010E943F04C6CFCF93C2
:1009E000DF93EC018091610290916202009759F0CF
:1009F00020916302309164022C173D0720F081E0C2
:100A0000DF91CF910895BE016F5F7F4F0E94960CDA
:100A1000009789F09093620280936102D093640200
:100A2000C09363022091650230916602232B39F74F
:100A3000FC011082E4CF80E0E3CF1F93CF93DF93DC
:100A400085ED8093BC008091450190914601A09175
:100A50004701B09148010796A11DB11D23E0B6954D
:100A6000A795979587952A95D1F72091BC0024FDED
:100A700003C010928D0152C0409145015091460132
:100A80006091470170914801452B462B472B69F334
:100A90000097A105B10541F025E32A95F1F7000083
:100AA0000197A109B109E1CF80914401C1E0C09350
:100AB0004301882399F1D091B8001091BA00809138
:100AC000BC008A7B8093BC0060E082E10E94EC0164
:100AD00060E083E10E94EC0110928D01C0938F01D0
:100AE00010928E0161E082E10E94EC0161E083E1FD
:100AF0000E94EC018091B9008E7F8093B9008091B3
:100B0000B9008D7F8093B90088E48093B80085E4B4
:100B10008093BC001093BA00D093B800DF91CF91BE
:100B20001F9108951F920F920FB60F9211242F93C9
:100B30003F934F935F936F937F938F939F93AF9365
:100B4000BF93EF93FF9384EC91E00E940B01FF9120
:100B5000EF91BF91AF919F918F917F916F915F9135
:100B60004F913F912F910F900FBE0F901F901895AE
:100B70001F920F920FB60F9211242F938F939F9372
:100B8000EF93FF93E091D401F091D5018081E09142
:100B9000DA01F091DB0182FD1BC090818091DD01C3
:100BA0008F5F8F732091DE01821741F0E091DD01AC
:100BB000F0E0EC53FE4F958F8093DD01FF91EF91B4
:100BC0009F918F912F910F900FBE0F901F901895AE
:100BD0008081F4CF1F920F920FB60F9211242F93A2
:100BE0003F938F939F93AF93BF938091B401909164
:100BF000B501A091B601B091B7013091B30123E0E6
:100C0000230F2D3758F50196A11DB11D2093B30177
:100C10008093B4019093B501A093B601B093B7014E
:100C20008091B8019091B901A091BA01B091BB0136
:100C30000196A11DB11D8093B8019093B901A093B5
:100C4000BA01B093BB01BF91AF919F918F913F913A
:100C50002F910F900FBE0F901F90189526E8230F2D
:100C60000296A11DB11DD2CF1F920F920FB60F9207
:100C700011242F933F934F935F936F937F938F93A1
:100C80009F93AF93BF93EF93FF938091B900887FB9
:100C9000803609F44AC0F0F5883209F4A5C018F589
:100CA000803109F499C0B8F4882309F4F5C088307C
:100CB00009F492C0FF91EF91BF91AF919F918F91F5
:100CC0007F916F915F914F913F912F910F900FBE48
:100CD0000F901F901895883109F486C0803251F723
:100CE00080938C0114C0803409F49BC040F480339D
:100CF000B9F38833F9F680938C0185ECAEC080356A
:100D000009F483C0883509F494C0883499F60E94A8
:100D10001D05D0CF883909F48AC038F5883729F005
:100D200050F4883611F0803729F683E080938D01E6
:100D300010928B0155C0883809F479C0803919F0B8
:100D4000803809F0B7CF80918B01803208F06FC0F6
:100D5000E0918B0181E08E0F80938B018091BB002D
:100D6000F0E0E559FE4F80833BC0803B39F0D0F482
:100D7000803A09F477C0883A09F09CCF84E08093E8
:100D80008D0110926A0110926901F0E0E0E009958E
:100D90008091690181110FC081E0809369011092F7
:100DA000490109C0803C09F4A8CF883C09F4A5CFCB
:100DB000883B09F07FCFE0916A0181E08E0F80933C
:100DC0006A01F0E0E75BFE4F80818093BB00909169
:100DD0006A018091690129C08091B2018093BB00B2
:100DE00085EC8093BC0066CF9091B1018091B001F9
:100DF000981758F5E091B10181E08E0F8093B10111
:100E0000F0E0E057FE4F8081E9CFE091B10181E051
:100E10008E0F8093B1018091BB00F0E0E057FE4F50
:100E200080839091B1018091B0019817C8F285E854
:100E3000D8CFE091B10181E08E0F8093B101809114
:100E4000BB00F0E0E057FE4F808380918F0181115D
:100E50005ECF81E080938E0184EA8093BC00109283
:100E60008D0128CF85EC8093BC0010928D0180917C
:100E70008B01803230F4E0918B01F0E0E559FE4FB8
:100E8000108260918B0170E08BE691E0F0E0E0E091
:100E9000099510928B010ECF10928C0138CF1092D1
:100EA000C7011092C60188EE93E0A0E0B0E0809305
:100EB000C8019093C901A093CA01B093CB018EE001
:100EC00091E09093C5018093C40185EC90E09093EC
:100ED000D1018093D00184EC90E09093D301809372
:100EE000D20180EC90E09093D5018093D40181EC05
:100EF00090E09093D7018093D60182EC90E090939C
:100F0000D9018093D80186EC90E09093DB01809327
:100F1000DA011092DD011092DE011092DF011092D1
:100F2000E00110926A021092690280E291E09093CF
:100F30006802809367028CE080936B028FEF80934E
:100F40006C028BE080936D0285E080936E0284E0FA
:100F500080936F0283E08093700282E0809371023D
:100F60001092720210927302109274021092750223
:100F70001092760281E00E94930310926202109216
:100F80006102109264021092630210926602109243
:100F9000650290E080E00E94EF04209161023091B0
:100FA0006202811113C02115310519F0C9010E9497
:100FB0000D0C109262021092610210926602109261
:100FC0006502109264021092630208951092660204
:100FD000109265026CE271E0C9010C945C0DCF9334
:100FE000DF9300D000D01F92CDB7DEB7789484B5E0
:100FF000826084BD84B5816084BD85B5826085BD15
:1010000085B5816085BD80916E00816080936E00A2
:101010001092810080918100826080938100809194
:101020008100816080938100809180008160809345
:1010300080008091B10084608093B1008091B00005
:1010400081608093B00080917A00846080937A0000
:1010500080917A00826080937A0080917A0081602A
:1010600080937A0080917A00806880937A00109251
:10107000C100E091D401F091D50182E08083E0913C
:10108000D001F091D1011082E091D201F091D30111
:101090008FEC80831092DC01E091D801F091D901AE
:1010A00086E08083E091D601F091D7018081806154
:1010B0008083E091D601F091D701808188608083A0
:1010C000E091D601F091D701808180688083E09122
:1010D000D601F091D70180818F7D808382E00E94CC
:1010E000930361E087E00E941A0280E480937C0011
:1010F00080917A00806480937A0080917A0086FDE6
:10110000FCCF8091780060917900762F682F072EB0
:10111000000C880B990B611571058105910511F083
:101120000E94C80A22242394312C42E3842E912C5D
:10113000A12CB12C19821A821B821C821D8261E0B3
:1011400086E00E941A0260E086E00E94EC0162E103
:1011500070E080E090E00E94700261E086E00E9412
:10116000EC018BE990E00197F1F760E086E00E94E6
:101170001A0201E117E286E00E94C301892B09F0FF
:101180005AC001501109B9F78091C0019091C10175
:101190009093BF018093BE010E94790AA50194013A
:1011A0000E94D10A625E7F4F8F4F9F4F7093BD01A7
:1011B0006093BC016DE271E087E692E00E943F041B
:1011C00084EC91E00E94EB00181619060CF0C3C0E5
:1011D00084EC91E00E94EB00181619060CF08DC00B
:1011E00084EC91E00E94C90089831A820091650213
:1011F000109166020F5F1F4FC8010E94EF04882301
:1012000099F0209161023091620280916502909183
:101210006602BE016F5F7F4F820F931F0E945C0DBD
:1012200010936602009365026AE070E080E090E04F
:101230000E947002CDCF01E117E286E00E94C30157
:10124000019721F401501109C1F79ECF28E2E22E47
:10125000F12C17E000E091E1C92E97E2D92E86E04B
:101260000E94C301892B29F481E0C81AD108B9F77B
:101270008BCF0E944B022B013C0181E1C82E87E2FB
:10128000D82E86E00E94C301019729F491E0C91A83
:10129000D108B9F779CF0E944B0264197509860904
:1012A0009709693271058105910578F0E1E0F0E078
:1012B000EC0FFD1FE00FF11D80819101012E01C097
:1012C000220F0A94EAF7822B8083111114C00F5F5A
:1012D00017E081E0E81AF10809F0BDCF898190E0BC
:1012E0009093C1018093C0018B8190E09093C301E2
:1012F0008093C20149CF1150ECCF409165025091CB
:101300006602609161027091620287E692E00E943B
:101310008D006AE271E087E692E00E943F0490E06F
:1013200080E00E94EF0420916102309162028111FD
:101330007FC02115310519F0C9010E940D0C1092D2
:10134000620210926102109266021092650210927F
:10135000640210926302E0917A02E23008F072C0F7
:10136000E150F0E0E959FD4F848980680E948D03C7
:1013700061E371E087E692E00E943F046091BE0164
:101380007091BF0187E692E00E94640487E692E0D4
:101390000E944E0482E00E948D038BE39FE101973F
:1013A000F1F768E371E084EC91E00E943F04609102
:1013B000BE017091BF0184EC91E00E94640484EC52
:1013C00091E00E944E0465E371E084EC91E00E949C
:1013D0003F046091BC017091BD0184EC91E00E94DA
:1013E000640484EC91E00E944E042091BE0130918F
:1013F000BF018091BC019091BD0161E0821793070C
:101400000CF460E087E00E94EC0168EE73E080E09D
:1014100090E00E94700280E090E0892B09F48ACE6F
:101420000E94F700882309F485CE0E94000082CE36
:1014300010926602109265026CE271E0C9010E948E
:101440005C0D89CFE1E08DCF8091610290916202C5
:10145000009711F00C940D0C08958F929F92AF920B
:10146000BF92CF92DF92EF92FF92CF93DF93EC0186
:10147000688179818A819B8161157105810591055A
:1014800021F464E279ED8BE597E02DE133EF41E063
:1014900050E00E94D10A49015A019B01AC01A7EA20
:1014A000B1E40E94F00A6B017C01ACEEB4EFA5013F
:1014B00094010E94FE0AC60ED71EE81EF91EF7FE12
:1014C00006C081E0C81AD108E10880E8F80AC8829D
:1014D000D982EA82FB82C701B6019F77DF91CF9163
:1014E000FF90EF90DF90CF90BF90AF909F908F9044
:1014F00008958F929F92AF92BF92CF92DF92EF9218
:10150000FF92609100017091010180910201909120
:101510000301611571058105910521F464E279EDFE
:101520008BE597E02DE133EF41E050E00E94D10AD6
:1015300049015A019B01AC01A7EAB1E40E94F00AFB
:101540006B017C01ACEEB4EFA50194010E94FE0A90
:10155000C60ED71EE81EF91EF7FE06C081E0C81AA7
:10156000D108E10880E8F80AC0920001D092010198
:10157000E0920201F0920301C701B6019F77FF904C
:10158000EF90DF90CF90BF90AF909F908F90089595
:101590006093000170930101809302019093030115
:1015A0000895052E97FB1EF400940E94E80A57FD4B
:1015B00007D00E943A0B07FC03D04EF40C94E80AC3
:1015C00050954095309521953F4F4F4F5F4F08956F
:1015D00090958095709561957F4F8F4F9F4F08959F
:1015E0000E945C0BA59F900DB49F900DA49F800D51
:1015F000911D11240895B7FF0C94F00A0E94F00A7F
:10160000821B930B08952F923F924F925F926F929D
:101610007F928F929F92AF92BF92CF92DF92EF9282
:10162000FF920F931F93CF93DF93CDB7DEB7CA1B03
:10163000DB0B0FB6F894DEBF0FBECDBF09942A882E
:10164000398848885F846E847D848C849B84AA84D6
:10165000B984C884DF80EE80FD800C811B81AA8163
:10166000B981CE0FD11D0FB6F894DEBF0FBECDBF2E
:10167000ED010895A1E21A2EAA1BBB1BFD010DC0AE
:10168000AA1FBB1FEE1FFF1FA217B307E407F50732
:1016900020F0A21BB30BE40BF50B661F771F881F0E
:1016A000991F1A9469F760957095809590959B01A4
:1016B000AC01BD01CF010895A29FB001B39FC0014D
:1016C000A39F700D811D1124911DB29F700D811D6E
:1016D0001124911D0895EE0FFF1F0590F491E02D48
:1016E00009940F931F93CF93DF938230910510F4E9
:1016F00082E090E0E0918102F091820230E020E00F
:10170000B0E0A0E0309799F42115310509F44AC002
:10171000281B390B24303105D8F58A819B8161154E
:10172000710589F1FB0193838283FE0111C0408121
:1017300051810281138148175907E0F04817590772
:1017400099F4109761F012960C93129713961C93CC
:101750003296CF01DF91CF911F910F9108950093A1
:10176000810210938202F4CF2115310551F0421706
:10177000530738F0A901DB019A01BD01DF01F8012F
:10178000C1CFEF01F9CF9093820280938102CDCF38
:10179000FE01E20FF31F81939193225031093983A7
:1017A0002883D7CF20917F0230918002232B41F4F0
:1017B00020910601309107013093800220937F022F
:1017C00020910401309105012115310541F42DB717
:1017D0003EB74091080150910901241B350BE0915F
:1017E0007F02F0918002E217F307A0F42E1B3F0B5B
:1017F0002817390778F0AC014E5F5F4F2417350783
:1018000048F04E0F5F1F5093800240937F028193F8
:1018100091939FCFF0E0E0E09CCFCF93DF930097D0
:10182000E9F0FC01329713821282A0918102B091FB
:101830008202ED0130E020E01097A1F42081318197
:10184000820F931F20917F02309180022817390761
:1018500009F061C0F0938002E0937F02DF91CF91A5
:101860000895EA01CE17DF07E8F54A815B819E0102
:1018700041155105B1F7E901FB83EA83499159917B
:10188000C40FD51FEC17FD0761F48081918102968A
:10189000840F951FE90199838883828193819B83BB
:1018A0008A83F0E0E0E012968D919C911397009767
:1018B000B9F52D913C911197CD010296820F931F9E
:1018C00020917F02309180022817390739F630972E
:1018D00051F51092820210928102B0938002A0937F
:1018E0007F02BCCFD383C28340815181840F951F77
:1018F000C817D90761F44E5F5F4F88819981480FFF
:10190000591F518340838A819B8193838283211550
:10191000310509F0B0CFF0938202E09381029ECFAF
:10192000FD01DC01C0CF13821282D7CFB0E0A0E06E
:10193000ECE9FCE00C94050B8C01009751F4CB0111
:101940000E94710B8C01C801CDB7DEB7E0E10C94A9
:10195000210BFC01E60FF71F9C0122503109E21711
:10196000F30708F49DC0D901CD91DC911197C617FA
:10197000D70798F0C530D10530F3CE01049786170C
:10198000970708F3C61BD70B2297C193D1936D938A
:101990007C93CF010E940D0CD6CF5B01AC1ABD0A1F
:1019A0004C018C0E9D1EA0918102B0918202512C9F
:1019B000412CF12CE12C109731F580917F02909110
:1019C00080028815990509F05CC04616570608F094
:1019D00058C08091040190910501009741F48DB7A2
:1019E0009EB74091080150910901841B950BE8179F
:1019F000F90708F055C0F0938002E0937F02F901E7
:101A000071836083A0CF8D919C91119712966C90F9
:101A1000129713967C901397A815B90559F56C0188
:101A200042E0C40ED11CCA14DB0420F1AC014A19F7
:101A30005B09DA011296159780F0628273825183F6
:101A40004083D9016D937C93E114F10471F0D701C7
:101A50001396FC93EE93129776CF22968C0F9D1FD0
:101A6000F90191838083F301EFCFF0938202E09339
:101A7000810269CF4816590608F42C017D01D30173
:101A80009ACFCB010E94710B7C01009749F0AE0107
:101A9000B8010E94530DC8010E940D0C870153CF5D
:101AA00010E000E050CFFB01DC0102C001900D927C
:101AB00041505040D8F70895FB01DC0101900D9290
:101AC0000020E1F7089510E0C2E6D0E004C0FE0176
:101AD0000E946B0B2196C336D107C9F7F894FFCF4C
:101AE00001000000000083028000000000002D01C2
:101AF0008D00BA007A01EB00C900DD000000000093
:101B000039048D00F402A20225000D0A0049443A6E
:101B10000052483A0073657448756D696469747958
:021B20003A0089
:00000001FF
