:100000000C945E000C9486000C9486000C94860080
:100010000C9486000C9486000C9486000C94860048
:100020000C9486000C9486000C9486000C94860038
:100030000C9486000C9486000C9486000C94860028
:100040000C94C8040C9486000C9496040C947004D0
:100050000C9486000C9486000C9486000C94860008
:100060000C9412050C9486000000000800020100A8
:100070000003040700000000000000000000000072
:10008000250028002B0000000000240027002A0083
:10009000040404040404040402020202020203032E
:1000A0000303030301020408102040800102040836
:1000B00010200102040810202D061E0811241FBE66
:1000C000CFEFD8E0DEBFCDBF22E0ACE3B1E001C0AE
:1000D0001D92A537B207E1F711E0A0E0B1E0E6EC30
:1000E000F4E102C005900D92AC33B107D9F710E0EE
:1000F000CDE5D0E004C02197FE010E945E08CC351A
:10010000D107C9F70E94CD060C94560A0C94000042
:1001100090E0FC01EC55FF4F249180579F4FFC016C
:100120008491882399F090E0880F991FFC01EA5789
:10013000FF4FA591B491FC01E458FF4F8591949134
:100140008FB7F894EC91E22BEC938FBF0895AF92A8
:10015000BF92CF92DF92EF92FF920F931F93CF93B4
:10016000DF936C017B018B01040F151FEB015E0116
:10017000AE18BF08C017D10759F06991D601ED91AB
:10018000FC910190F081E02DC6010995892B79F74A
:10019000C501DF91CF911F910F91FF90EF90DF90FC
:1001A000CF90BF90AF900895FC01538D448D252FC3
:1001B00030E0842F90E0821B930B541710F0CF9601
:1001C000089501970895FC01918D828D981761F033
:1001D000A28DAE0FBF2FB11D5D968C91928D9F5F4A
:1001E0009F73928F90E008958FEF9FEF0895FC0129
:1001F000918D828D981731F0828DE80FF11D858DDC
:1002000090E008958FEF9FEF0895FC01918D228D6E
:10021000892F90E0805C9F4F821B91098F739927F3
:10022000089586EB91E00E94050121E0892B09F4F5
:1002300020E0822F089580E090E0892B29F00E9431
:10024000110181110C9400000895FC01A48DA80FE8
:10025000B92FB11DA35ABF4F2C91848D90E0019608
:100260008F739927848FA689B7892C93A089B18928
:100270008C91837080648C93938D848D981306C0C9
:100280000288F389E02D80818F7D80830895EF922D
:10029000FF920F931F93CF93DF93EC0181E0888F40
:1002A0009B8D8C8D98131AC0E889F989808185FF10
:1002B00015C09FB7F894EE89FF896083E889F989B2
:1002C00080818370806480839FBF81E090E0DF91B4
:1002D000CF911F910F91FF90EF900895F62E0B8D07
:1002E00010E00F5F1F4F0F731127E02E8C8D8E11C2
:1002F0000CC00FB607FCFACFE889F989808185FF29
:10030000F5CFCE010E942501F1CFEB8DEC0FFD2F33
:10031000F11DE35AFF4FF0829FB7F8940B8FEA89E3
:10032000FB8980818062CFCFCF93DF93EC01888DF2
:100330008823B9F0AA89BB89E889F9898C9185FD60
:1003400003C0808186FD0DC00FB607FCF7CF8C91EE
:1003500085FFF2CF808185FFEDCFCE010E94250180
:10036000E9CFDF91CF91089590E0FC01E859FF4F6C
:100370002491FC01EC55FF4F3491FC01E057FF4FF5
:10038000E491EE23C9F0222339F0233001F1A8F4DF
:10039000213019F1223029F1F0E0EE0FFF1FE4586F
:1003A000FF4FA591B4918FB7F894EC91611126C0DD
:1003B00030953E233C938FBF08952730A9F0283015
:1003C000C9F0243049F7809180008F7D03C080916F
:1003D00080008F7780938000DFCF84B58F7784BDD6
:1003E000DBCF84B58F7DFBCF8091B0008F7780937A
:1003F000B000D2CF8091B0008F7DF9CF3E2BDACF05
:100400003FB7F8948091B2019091B301A091B401EB
:10041000B091B50126B5A89B05C02F3F19F00196F4
:10042000A11DB11D3FBFBA2FA92F982F8827BC014E
:10043000CD01620F711D811D911D42E0660F771F76
:10044000881F991F4A95D1F7089508952091630157
:10045000260F3327331F21323105ECF42091870119
:10046000FC0190E080E0243069F082E00895A091E2
:1004700063012191AC014D5B5E4FA40FB52FB11DFF
:100480002C930196861798F380916301680F60930F
:10049000630180E0089581E0089508958FEF9FEF54
:1004A00008958FEF9FEF089580913C0190E0919522
:1004B000819591090895CF93DF93CB01EA01642FD1
:1004C0000E942602CE01DF91CF910895CF93DF9352
:1004D0001F92CDB7DEB7698361E0CE0101960E941D
:1004E000260281E090E00F90DF91CF91089590E097
:1004F00080E00895CF93DF93EC0160E08E810E944D
:10050000B40161E08E810E94B40160E08E810E949E
:10051000B4018BE891E00197F1F7DF91CF91089555
:10052000CF92DF92EF92FF920F931F93CF93DF93BF
:100530006C017C0187E0E80EF11CD0E0C0E0062FE2
:1005400010E0B8010C2E02C0759567950A94E2F789
:100550006170F70181917F010E94B4012196C4303E
:10056000D10579F7C601DF91CF911F910F91FF90CF
:10057000EF90DF90CF900C947A02CF92DF92EF92BF
:10058000FF920F931F93CF93DF93EC01F62E642F0E
:100590008C810E94B4018D818F3F19F060E00E9430
:1005A000B4010F2D10E08F8584FF25C06E0187E018
:1005B000C80ED11CF12CE12CB8010E2C02C075958F
:1005C00067950A94E2F76170F60181916F010E94CC
:1005D000B401FFEFEF1AFF0A88E0E816F10461F7B3
:1005E000CE01DF91CF911F910F91FF90EF90DF909F
:1005F000CF900C947A02B80184E0759567958A953E
:10060000E1F7CE010E9490026F2DCE01DF91CF91D4
:100610001F910F91FF90EF90DF90CF900C9490027C
:1006200040E0682F89E592E00C94BD02CF93DF9300
:10063000823029F4909168029860909368028093C8
:100640006C0210926D0280E480936E0280E18093D0
:100650006F0280E58093700280915D020E948800A5
:1006600080915E028F3F11F00E94880080915F02AE
:100670000E948800C9E5D2E09E0129553240809150
:10068000680284FD0AC084E090E0219628173907AB
:100690003CF48E810E948800EFCF88E090E0F5CF97
:1006A0008BE39DE00197F1F760E080915D020E948D
:1006B000B40160E080915F020E94B40180915E020B
:1006C0008F3F19F060E00E94B4018091680284FDC0
:1006D00039C063E089E592E00E949002CBE4D6E461
:1006E000CE010197F1F763E089E592E00E94900264
:1006F0002197F1F763E089E592E00E94900283E59B
:1007000092E00197F1F762E089E592E00E949002A1
:100710008091680280620E94100384E080936902E5
:100720008CE00E94100381E00E9410038BE39FE1A4
:100730000197F1F782E080936A0286E0DF91CF9122
:100740000C94100380620E9410038BE496E40197DE
:10075000F1F78091680280620E94100383E592E0C5
:100760000197F1F78091680280620E941003D0CF58
:1007700041E00E94BD0281E090E00895FB010190FC
:100780000020E9F73197AF01461B570BDC01ED91D3
:10079000FC910280F381E02D0994CF93DF93EC016B
:1007A0008091530290915402009759F02091550284
:1007B000309156022C173D0720F081E0DF91CF9158
:1007C0000895BE016F5F7F4F0E948909009789F0ED
:1007D0009093540280935302D0935602C0935502D3
:1007E0002091570230915802232B39F7FC011082D7
:1007F000E4CF80E0E3CF1F93CF93DF9385ED809329
:10080000BC0080913F0190914001A0914101B091C5
:1008100042010796A11DB11D23E0B695A7959795B6
:1008200087952A95D1F72091BC0024FD03C0109232
:10083000870152C040913F015091400160914101B8
:1008400070914201452B462B472B69F30097A10578
:10085000B10541F025E32A95F1F700000197A109C0
:10086000B109E1CF80913E01C1E0C0933D018823F1
:1008700099F1D091B8001091BA008091BC008A7BA8
:100880008093BC0060E082E10E94B40160E083E1FB
:100890000E94B40110928701C093890110928801CF
:1008A00061E082E10E94B40161E083E10E94B40151
:1008B0008091B9008E7F8093B9008091B9008D7FBF
:1008C0008093B90088E48093B80085E48093BC00ED
:1008D0001093BA00D093B800DF91CF911F91089583
:1008E0001F920F920FB60F9211242F933F934F93A5
:1008F0005F936F937F938F939F93AF93BF93EF9388
:10090000FF9386EB91E00E942501FF91EF91BF914B
:10091000AF919F918F917F916F915F914F913F9197
:100920002F910F900FBE0F901F9018951F920F924E
:100930000FB60F9211242F938F939F93EF93FF93F2
:10094000E091C601F091C7018081E091CC01F09166
:10095000CD0182FD1BC090818091CF018F5F8F738D
:100960002091D001821741F0E091CF01F0E0EA54EC
:10097000FE4F958F8093CF01FF91EF919F918F91C3
:100980002F910F900FBE0F901F9018958081F4CF7C
:100990001F920F920FB60F9211242F933F938F93B4
:1009A0009F93AF93BF938091AE019091AF01A091BF
:1009B000B001B091B1013091AD0123E0230F2D378B
:1009C00058F50196A11DB11D2093AD018093AE0194
:1009D0009093AF01A093B001B093B1018091B201A7
:1009E0009091B301A091B401B091B5010196A11D00
:1009F000B11D8093B2019093B301A093B401B09361
:100A0000B501BF91AF919F918F913F912F910F9021
:100A10000FBE0F901F90189526E8230F0296A11D78
:100A2000B11DD2CF1F920F920FB60F9211242F93A8
:100A30003F934F935F936F937F938F939F93AF9366
:100A4000BF93EF93FF938091B900887F803609F4BC
:100A50004AC0F0F5883209F4A5C018F5803109F4D0
:100A600099C0B8F4882309F4F5C0883009F492C01D
:100A7000FF91EF91BF91AF919F918F917F916F9176
:100A80005F914F913F912F910F900FBE0F901F904C
:100A90001895883109F486C0803251F78093860119
:100AA00014C0803409F49BC040F48033B9F3883318
:100AB000F9F68093860185ECAEC0803509F483C0D9
:100AC000883509F494C0883499F60E94FB03D0CF8E
:100AD000883909F48AC038F5883729F050F4883607
:100AE00011F0803729F683E0809387011092850109
:100AF00055C0883809F479C0803919F0803809F078
:100B0000B7CF80918501803208F06FC0E0918501F8
:100B100081E08E0F809385018091BB00F0E0EB595E
:100B2000FE4F80833BC0803B39F0D0F4803A09F41B
:100B300077C0883A09F09CCF84E0809387011092B7
:100B4000640110926301F0E0E0E009958091630197
:100B500081110FC081E0809363011092430109C0AD
:100B6000803C09F4A8CF883C09F4A5CF883B09F064
:100B70007FCFE091640181E08E0F80936401F0E00B
:100B8000ED5BFE4F80818093BB009091640180916A
:100B9000630129C08091AC018093BB0085EC8093F8
:100BA000BC0066CF9091AB018091AA01981758F5CF
:100BB000E091AB0181E08E0F8093AB01F0E0E6574E
:100BC000FE4F8081E9CFE091AB0181E08E0F8093F1
:100BD000AB018091BB00F0E0E657FE4F808390911F
:100BE000AB018091AA019817C8F285E8D8CFE091AF
:100BF000AB0181E08E0F8093AB018091BB00F0E0F0
:100C0000E657FE4F80838091890181115ECF81E09C
:100C10008093880184EA8093BC001092870128CFDA
:100C200085EC8093BC001092870180918501803211
:100C300030F4E0918501F0E0EB59FE4F10826091B5
:100C4000850170E085E691E0F0E0E0E00995109222
:100C500085010ECF1092860138CF1092B901109203
:100C6000B80188EE93E0A0E0B0E08093BA019093E1
:100C7000BB01A093BC01B093BD018AE091E09093C9
:100C8000B7018093B60185EC90E09093C301809307
:100C9000C20184EC90E09093C5018093C40180EC84
:100CA00090E09093C7018093C60181EC90E090930F
:100CB000C9018093C80182EC90E09093CB018093AE
:100CC000CA0186EC90E09093CD018093CC01109204
:100CD000CF011092D0011092D1011092D201109246
:100CE0005C0210925B028CE191E090935A02809337
:100CF00059028CE080935D028FEF80935E028BE05F
:100D000080935F0285E08093600284E080936102BB
:100D100083E08093620282E0809363021092640217
:100D20001092650210926602109267021092680299
:100D300081E00E9416031092540210925302109206
:100D4000560210925502109258021092570290E0EB
:100D500080E00E94CD032091530230915402811112
:100D600013C02115310519F0C9010E940009109224
:100D7000540210925302109258021092570210928D
:100D8000560210925502089510925802109257027E
:100D900068E371E0C9010C944F0ACF93DF9300D050
:100DA000CDB7DEB7789484B5826084BD84B58160A8
:100DB00084BD85B5826085BD85B5816085BD809126
:100DC0006E00816080936E0010928100809181009E
:100DD0008260809381008091810081608093810096
:100DE000809180008160809380008091B100846058
:100DF0008093B1008091B00081608093B0008091B9
:100E00007A00846080937A0080917A008260809377
:100E10007A0080917A00816080937A0080917A00D4
:100E2000806880937A001092C100E091C601F09131
:100E3000C70182E08083E091C201F091C30110827A
:100E4000E091C401F091C5018FEC80831092CE0136
:100E5000E091CA01F091CB0186E08083E091C80166
:100E6000F091C901808180618083E091C801F09197
:100E7000C901808188608083E091C801F091C90137
:100E8000808180688083E091C801F091C9018081F0
:100E90008F7D808382E00E94160364E271E089E521
:100EA00092E00E94BE030BE31FE190E0E92E90E088
:100EB000F92E86EB91E00E940501181619060CF038
:100EC000A7C081E00E941003C8010197F1F76BE20F
:100ED00071E089E592E00E94BE0366E371E089E576
:100EE00092E00E94BE03E0916C02E23008F05AC02A
:100EF000E150F0E0E75AFD4F848980680E941003BA
:100F000086EB91E00E940501181619060CF04CC002
:100F100086EB91E00E94E30089831A82C090570219
:100F2000D09058022FEFC21AD20AC6010E94CD03F8
:100F3000882399F0209153023091540280915702F6
:100F400090915802BE016F5F7F4F820F931F0E94E6
:100F50004F0AD0925802C09257020E9400022B0101
:100F60003C018AE0882E912CA12CB12C0E94000219
:100F70006419750986099709683E734081059105D2
:100F8000A8F381E0881A9108A108B10828EE420E62
:100F900023E0521E611C711C81149104A104B10450
:100FA00029F7AECFE1E0A5CF40915702509158020A
:100FB000609153027091540289E592E00E94A7006B
:100FC00069E371E086EB91E00E94BE0366E371E0A5
:100FD00086EB91E00E94BE0390E080E00E94CD038A
:100FE000209153023091540281111EC02115310508
:100FF00019F0C9010E940009109254021092530284
:1010000010925802109257021092560210925502F6
:10101000E114F10409F44DCF0E941101882309F471
:1010200048CF0E94000045CF1092580210925702FC
:1010300068E371E0C9010E944F0AEACF8091530230
:1010400090915402009711F00C94000908952F928A
:101050003F924F925F926F927F928F929F92AF9248
:10106000BF92CF92DF92EF92FF920F931F93CF9395
:10107000DF93CDB7DEB7CA1BDB0B0FB6F894DEBF2C
:101080000FBECDBF09942A88398848885F846E8452
:101090007D848C849B84AA84B984C884DF80EE809C
:1010A000FD800C811B81AA81B981CE0FD11D0FB6A5
:1010B000F894DEBF0FBECDBFED010895EE0FFF1F08
:1010C0000590F491E02D09940F931F93CF93DF9334
:1010D0008230910510F482E090E0E0917302F0918B
:1010E000740230E020E0B0E0A0E0309799F42115E0
:1010F000310509F44AC0281B390B24303105D8F5D5
:101100008A819B816115710589F1FB01938382833B
:10111000FE0111C040815181028113814817590796
:10112000E0F04817590799F4109761F012960C9364
:10113000129713961C933296CF01DF91CF911F9196
:101140000F9108950093730210937402F4CF211548
:10115000310551F04217530738F0A901DB019A011C
:10116000BD01DF01F801C1CFEF01F9CF9093740207
:1011700080937302CDCFFE01E20FF31F8193919311
:101180002250310939832883D7CF209171023091C1
:101190007202232B41F4209102013091030130931C
:1011A00072022093710220910001309101012115FA
:1011B000310541F42DB73EB740910401509105012E
:1011C000241B350BE0917102F0917202E217F307D4
:1011D000A0F42E1B3F0B2817390778F0AC014E5FA7
:1011E0005F4F2417350748F04E0F5F1F5093720270
:1011F00040937102819391939FCFF0E0E0E09CCF08
:10120000CF93DF930097E9F0FC01329713821282AB
:10121000A0917302B0917402ED0130E020E01097CC
:10122000A1F420813181820F931F209171023091AE
:1012300072022817390709F061C0F0937202E09337
:101240007102DF91CF910895EA01CE17DF07E8F52B
:101250004A815B819E0141155105B1F7E901FB838C
:10126000EA8349915991C40FD51FEC17FD0761F42A
:10127000808191810296840F951FE901998388836B
:10128000828193819B838A83F0E0E0E012968D91C6
:101290009C9113970097B9F52D913C911197CD0131
:1012A0000296820F931F20917102309172022817CB
:1012B000390739F6309751F5109274021092730283
:1012C000B0937202A0937102BCCFD383C2834081DA
:1012D0005181840F951FC817D90761F44E5F5F4F86
:1012E00088819981480F591F518340838A819B814E
:1012F000938382832115310509F0B0CFF0937402F6
:10130000E09373029ECFFD01DC01C0CF13821282F5
:10131000D7CFB0E0A0E0EFE8F9E00C9429088C0109
:10132000009751F4CB010E9464088C01C801CDB72D
:10133000DEB7E0E10C944508FC01E60FF71F9C01C5
:1013400022503109E217F30708F49DC0D901CD916D
:10135000DC911197C617D70798F0C530D10530F347
:10136000CE0104978617970708F3C61BD70B229761
:10137000C193D1936D937C93CF010E940009D6CF86
:101380005B01AC1ABD0A4C018C0E9D1EA09173022C
:10139000B0917402512C412CF12CE12C109731F5B5
:1013A00080917102909172028815990509F05CC0D4
:1013B0004616570608F058C080910001909101012F
:1013C000009741F48DB79EB74091040150910501FB
:1013D000841B950BE817F90708F055C0F0937202CB
:1013E000E0937102F90171836083A0CF8D919C918C
:1013F000119712966C90129713967C901397A815DC
:10140000B90559F56C0142E0C40ED11CCA14DB04C5
:1014100020F1AC014A195B09DA011296159780F0A8
:101420006282738251834083D9016D937C93E1146E
:10143000F10471F0D7011396FC93EE93129776CFD7
:1014400022968C0F9D1FF90191838083F301EFCFCA
:10145000F0937402E093730269CF4816590608F4BA
:101460002C017D01D3019ACFCB010E9464087C013D
:10147000009749F0AE01B8010E94460AC8010E94D7
:101480000009870153CF10E000E050CFFB01DC01E1
:1014900002C001900D9241505040D8F70895FB01D1
:1014A000DC0101900D920020E1F7089510E0CDE5F8
:1014B000D0E004C0FE010E945E082196CE35D1071F
:0614C000C9F7F894FFCF0C
:1014C600000075028000000000004701A700D4005C
:1014D60094010501E300F70000000000B803A7002F
:1014E6007702250248656C6C6F28005354554445B5
:0C14F6004E54204944000D0A004F4B00EA
:00000001FF
